:100000000C94C91C0C94091D0C94091D0C94091D19
:100010000C94091D0C94091D0C94091D0C94091DC8
:100020000C94091D0C94091D0C94091D0C94091DB8
:100030000C94091D0C94091D0C94091D0C94091DA8
:100040000C94091D0C9493880C94091D0C94091DA3
:100050000C94091D0C9490860C94091D0D949D21FF
:100060000C94091D0C941ADA0C94E4D90C94091D13
:100070000C94091D0C94091D0C94091D0C94091D68
:100080000C94091D0C94091D0C94091D0C94091D58
:100090000C94091D0C94091D0C94091D0D94A8269F
:1000A0000C94091D0C94091D0C94091D0C94091D38
:1000B0000C94091D0C94091D0C94091D0C94091D28
:1000C0000C94091D0C94091D0C94091D0C94091D18
:1000D0000C94091D0C94091D0C94091D0C94091D08
:1000E0000C94091D084AD73B3BCE016E84BCBFFD72
:1000F000C12F3D6C74319ABD56833DDA3D00C77FF8
:1001000011BED9E4BB4C3E916BAAAABE0000008090
:100110003F05A84CCDB2D44EB93836A9020C50B91F
:10012000918688083CA6AAAA2ABE000000803F004B
:100130000D949C1F0D941F120D9446360D94D11FE3
:100140000D94A41F0D94B51F0D94C31F0D94851F0E
:100150000D9435110D94BF1F0D948A1F0D949A159F
:100160000D94E0150D94A81F0D9434110D94621395
:100170000D94C91F0D94EE110D948B150D94A93E8D
:100180000D94D71F0D94B4150D94A01F0D94AB1FA3
:100190000D94AD150D94B11F0D94CD1F0D948A15BE
:1001A0000D94C1110D943C140D94DB1F0D94BB1FD5
:1001B0004E414E494E495459494E46CDCCCC3D0A4C
:1001C000D7233C17B7D13877CC2B329595E6241F2F
:1001D000B14F0A000020410000C84200401C4620E8
:1001E000BCBE4CCA1B0E5AAEC59D7400407A10F3BB
:1001F0005A00A0724E18090010A5D4E80000E87655
:1002000048170000E40B54020000CA9A3B000000AB
:10021000E1F505000080969800000040420F0000C4
:1002200000A08601000000102700000000E8030085
:100230000000006400000000000A0000000000014F
:1002400000000000002C76D888DC674F0823DFC14F
:10025000DFAE59E1B1B796E5E3E453C63AE651990A
:100260007696E8E6C28426EB898C9B62ED407C6F33
:10027000FCEFBC9C9F40F2BAA56FA5F490055A2AEA
:10028000F75C936B6CF9676DC11BFCE0E40D47FEF6
:10029000F520E6B500D0ED902E03009435770500EB
:1002A00080841E080000204E0A000000C80C333372
:1002B00033330F986E12831141EF8D2114893BE681
:1002C0005516CFFEE6DB18D1844B381BF77C1D900A
:1002D0001DA4BBE424203284725E228100C9F12473
:1002E000ECA1E53D271FE03FF03CF03B701F601E96
:1002F000E03DF03BF038700FC0078003001FE03F87
:10030000F03EF03CF01AE01EE03EF03EF03EF00F12
:10031000C0078003001FE020102310249010A011BC
:10032000202210241037B00840048003001FE02072
:100330001021102310152011202110211031300818
:100340004004800300554E4C4F41442046494C41E7
:100350004D454E54004C4F41442046494C414D457B
:100360004E540046494C414D454E54204348414E61
:1003700047450020573A0042656420436F6F6C691F
:100380006E672E2E2E004265642048656174696E8A
:10039000672E2E2E0023646566696E6520444546EF
:1003A00041554C545F0000626564004B6420004B73
:1003B0006920004B7020005049442074756E696EAE
:1003C0006720646F6E65002066696E697368656496
:1003D000212050757420746865206C617374204B03
:1003E000702C204B6920616E64204B6420636F6E1B
:1003F0007374616E74732066726F6D2062656C6FCA
:100400007720696E746F20436F6E666967757261DD
:1004100074696F6E2E680A00504944204175746FEC
:1004200074756E6500206661696C6564212074696D
:100430006D656F75740A00504944204175746F747E
:10044000756E65004175746F74756E6520666169BF
:100450006C6564212054696D656F75742E0020668B
:1004600061696C6564212054656D70657261747595
:10047000726520746F6F20686967680A005049448C
:10048000204175746F74756E65005049442043793E
:10049000636C65730025532025692F256900204B67
:1004A000643A2000204B693A2000204B703A20002B
:1004B00020436C617373696320504944200A002013
:1004C0004E6F206F76657273686F6F740A002054E8
:1004D000753A2000204B753A2000206D61783A2053
:1004E00000206D696E3A200020643A200020626985
:1004F00061733A200048656174696E672E2E2E0084
:100500002073746172740A00504944204175746FFD
:1005100074756E65004175746F74756E65206661E3
:10052000696C6564212054656D70657261747572C3
:100530006520746F6F20686967682E0020666169A6
:100540006C6564212054656D7065726174757265A7
:1005500020746F6F20686967680A00504944204121
:1005600075746F74756E6500504944204175746FE1
:1005700074756E6500206661696C65642120426156
:1005800064206865617465722069640A005049449A
:10059000204175746F74756E65004572723A2075EE
:1005A00074663820666F6E74206E6F7420696E6991
:1005B0007469616C697A65642E004572723A2075BF
:1005C00074663820666F6E74206E6F7420696E6971
:1005D0007469616C697A65642E004572723A20759F
:1005E00074663820666F6E74206E6F7420696E6951
:1005F0007469616C697A65642E002568753A2530E6
:100600003268750025303268753A253032687500D9
:100610002530326875272530326875002568756485
:100620002025303268753A2530326875004265649D
:1006300000456E636C6F737572650020202020206A
:10064000202000202020200020202020202020000A
:1006500065727200FD02E5022D0315033FFFF83EAF
:1006600000F839F03831E01831E01821E1E820F3E2
:10067000E8207FE82077E828EE282FDC082FFC0808
:100680002F9E082F0F08300F18300F18381F383ED4
:1006900000F83FFFF83FFFF83E00F8383F38307E63
:1006A00018307C18287C082C38082F39C82FFFE810
:1006B0002FC7E82FFFE82739E8203868207C28304A
:1006C0007C1830FC1839F8383E00F83FFFF83FFF3F
:1006D000F83E00F8380F38341FD8361F982F1F08FF
:1006E0002F9E082FFC082FDC0827EFC82077E82072
:1006F0007FE820F3E821F1E833F0D837F05839E00B
:10070000383E00F83FFFF83FFFF83E80F839803868
:100710003781D837C3D827C7E823C7F821FF8820F7
:100720006C08206C08206C0823FF083FC7882FC77F
:10073000C83787D83703D83803383E02F83FFFF868
:100740001FFFF81FFFF804104002082002082004D1
:100750001040082080104100104100082080041043
:10076000400000001FFFF81FFFF8256C6425636D33
:100770000063616E63656C005072696E7420416243
:100780006F72746564004469736D697373005549D1
:100790002041626F72746564004D323520500A4DFD
:1007A000323400526573756D65005549205061758E
:1007B00073650050617573696E672E2E2E00726529
:1007C00073756D65004D323400454550524F4D20D4
:1007D00056657273696F6E204572726F720045457F
:1007E00050524F4D20496E646578204572726F7289
:1007F00000454550524F4D20435243204572726F81
:1008000072003F0049676E6F7265005265736574D0
:1008100000496E697469616C697A6520454550527A
:100820004F4D0045005A005859004C6F6164202A12
:10083000004C6F6164206D6D00556E6C6F616420BB
:100840002A00556E6C6F6164206D6D0046696C2ED8
:10085000204469612E202A0046696C2E204469617B
:100860002E004520696E206D6D5E33002008204605
:10087000616374002008204D6178002008204D69D4
:100880006E004F6666004F6E004175746F74656D43
:1008900070004D696E2054726176656C20537065EE
:1008A0006564004D696E2056656C6F6369747900EC
:1008B0004D61782040205370656564004D6178205B
:1008C0004520416363656C004D61782040204163A1
:1008D00063656C0054726176656C20416363656C7E
:1008E000005265747261637420416363656C0041FA
:1008F0006363656C004D61782040204A65726B002F
:10090000402073746570732F6D6D00416476616E65
:100910006365642053657474696E6773003F0043B8
:10092000616E63656C00496E6974004D3432380045
:10093000496E697469616C697A6520454550524F0A
:100940004D0046696C616D656E740054656D70652F
:1009500072617475726500447269766520537472B1
:10096000656E6774680053746570732F6D6D004A0F
:1009700065726B00416363656C65726174696F6E6B
:10098000004D617820537065656420286D6D2F736C
:10099000290053657420486F6D65204F6666736546
:1009A000747300436F6E66696775726174696F6E08
:1009B000003F004E65787420436F726E657200448C
:1009C0006F6E65004E65787400486F6D696E6720C4
:1009D00058595A003F0043616E63656C204F626A4C
:1009E000656374004E4F005945530043616E636563
:1009F0006C204F626A656374203D004D61696E0032
:100A00005A20526169736500326E64204E6F7A7AA3
:100A10006C65204000426564004E6F7A7A6C650018
:100A200046616E20537065656400436F6E6669674A
:100A300075726174696F6E00526573746F726520B0
:100A400044656661756C7473004C6F616420536516
:100A50007474696E67730053746F726520536574A4
:100A600074696E6773004F6666004F6E00536F7552
:100A70006E640050726568656174202420436F6E57
:100A800066004C43442054696D656F757420286D71
:100A900029004C434420436F6E7472617374005498
:100AA0006F6F6C204368616E676500546F6F6C20D8
:100AB0004F66667365747300416476616E63656446
:100AC0002053657474696E6773004D61696E004DE3
:100AD00037303220542564004D36303020423020EB
:100AE000542564004D373032203B2564004D3730AB
:100AF0003120542564004368616E67652046696C47
:100B0000616D656E7400556E6C6F61642046696C32
:100B1000616D656E74004C6F61642046696C616D37
:100B2000656E7400507265686561742043757374F6
:100B30006F6D0050726568656174202400426163C6
:100B40006B00556E6C6F6164202A004D37303200A7
:100B5000556E6C6F616420416C6C004C6F61642059
:100B60002A004368616E67652046696C616D656E39
:100B700074202A004D61696E00436F6E74696E7552
:100B800065005075726765206D6F72650052455340
:100B9000554D45204F5054494F4E533A00505249FD
:100BA0004E54205041555345440020204E6F7A7AD0
:100BB0006C653A20005061726B696E672E2E2E00B4
:100BC00000005761697420666F720066696C616D20
:100BD000656E74206368616E676500746F2073745E
:100BE000617274005761697420666F720066696C87
:100BF000616D656E7420756E6C6F616400004E6F80
:100C00007A7A6C652068656174696E6700506C65FE
:100C100061736520776169742E2E2E000050726515
:100C2000737320627574746F6E00746F20686561F1
:100C300074206E6F7A7A6C650000496E7365727409
:100C40002066696C616D656E7400616E64207072FF
:100C500065737320627574746F6E00746F20636FB8
:100C60006E74696E7565005761697420666F7200F5
:100C700066696C616D656E74206C6F616400005014
:100C80007265737320427574746F6E00746F207296
:100C90006573756D65207072696E740000576169C7
:100CA0007420666F72207072696E7400746F2072A7
:100CB0006573756D652E2E2E000057616974206670
:100CC0006F720066696C616D656E74207075726715
:100CD0006500004D36303020423020542569004DEB
:100CE00037303120542569004D3730322054256982
:100CF000003135300035004245443A2050743130DF
:100D00003020556C74694D42203576003331350002
:100D1000350045323A20507431303020556C7469BA
:100D20004D422035760052756E61776179205761AA
:100D30007463683A204F4E004D61782054656D70A1
:100D400000333135004D696E2054656D70003500FB
:100D500045313A20507431303020556C74694D4221
:100D6000203576005053550047656E657269630003
:100D700050726F746F636F6C00312E30004261757A
:100D8000640032353030303000556C74696D616B01
:100D9000657220322E7800457874727564657273BE
:100DA0000032006D61726C696E66772E6F7267003B
:100DB000556C74696D616B6572204F726967696EFD
:100DC000616C2B2044585500323032322D30392D91
:100DD0003238006275676669782D322E312E7800C0
:100DE0004D61726C696E00546865726D6973746FE1
:100DF000727300426F61726420496E666F005072B8
:100E0000696E74657220496E666F004D61696E008F
:100E100056696F6C657400496E6469676F00426C57
:100E2000756500477265656E0059656C6C6F77007B
:100E30004F72616E6765005265640057686974653A
:100E400000426C756520496E74656E736974790033
:100E5000477265656E20496E74656E7369747900BA
:100E600052656420496E74656E73697479004C45EF
:100E70004420436F6E74726F6C004C696768742015
:100E80004272696768746E65737300436F6E66695A
:100E90006775726174696F6E0043617365204C6998
:100EA00067687400437573746F6D204C696768746C
:100EB00073004C69676874205072657365747300C1
:100EC00044656661756C74004F6666004F6E004C39
:100ED0006967687473004D61696E003F0042616329
:100EE0006B0053746F700073687574646F776E0075
:100EF0003F0043616E63656C0050726F63656564AB
:100F0000004E6F204D65646961005072696E7420F7
:100F100066726F6D204D65646961004368616E673C
:100F200065204D65646961004D3231004368616E32
:100F300067652046696C616D656E7400486F7374F7
:100F40002053687574646F776E004C6967687473BA
:100F50000041626F7574205072696E74657200434F
:100F60006F6E66696775726174696F6E0054656D46
:100F70007065726174757265004D6F74696F6E0093
:100F80005072656865617420437573746F6D0053AA
:100F90007461727420486F7374205072696E7400AB
:100FA000526573756D65205072696E740043616E91
:100FB00063656C204F626A6563740054756E6500EA
:100FC00053746F70205072696E7400506175736550
:100FD000205072696E7400496E666F2053637265AB
:100FE000656E003F005374617274205072696E74B4
:100FF0000043616E63656C005072696E74004361FA
:101000006E6E6F7420656E746572207375626469AC
:10101000723A200002202E2E004261636B004D6167
:10102000696E00000C0F00FE07022503BB017FFE66
:1010300008FE08FE05080806000040F0C8888898E9
:101040007810050808060000C0F88888888888F8A5
:101050000505050600012030F830200508080600C7
:10106000002070F820202020E00509090600FF205C
:1010700070A8A8B888887020070505070001D86CFB
:10108000366CD80509090600FFF8A8888888888882
:10109000A8F8050A0A0600FE205050505088A8A85B
:1010A000887003030306000340A040FFFFFFFFFF1B
:1010B000FFFFFFFFFFFFFFFFFFFFFFFFFFFFFFFF40
:1010C000FF0000000605FF01070706020080808080
:1010D00080800080030303060105A0A0A00506068A
:1010E00006000050F85050F8500509090600FF208E
:1010F00070A8A07028A87020050707060000C8C8BF
:10110000102040989805070706000040A0A040A8BE
:101110009068010303060205808080030909060127
:10112000FF2040408080804040200309090601FFE5
:101130008040402020204040800507070600002016
:10114000A8702070A8200505050600012020F820C1
:10115000200203030601FFC04080050101060003D1
:10116000F8020202060100C0C005070706000008D9
:10117000101020404080050707060000708898A8DE
:10118000C8887003070706010040C040404040E0A7
:10119000050707060000708808102040F8050707BB
:1011A000060000F8081030088870050707060000E0
:1011B00010305090F81010050707060000F880F076
:1011C00008088870050707060000304080F088880E
:1011D00070050707060000F80810102020200507FA
:1011E0000706000070888870888870050707060069
:1011F0000070888878081060020505060100C0C0EC
:1012000000C0C00206060601FFC0C000C040800347
:101210000505060101204080402005030306000269
:10122000F800F8030505060101804020408005070D
:101230000706000070881020200020050707060020
:10124000007088B8A8B8807005070706000070888D
:1012500088F8888888050707060000F04848704825
:1012600048F00507070600007088808080887005B8
:101270000707060000F04848484848F005070706F9
:101280000000F88080F08080F8050707060000F86D
:101290008080F080808005070706000070888080CD
:1012A000988870050707060000888888F88888886D
:1012B000030707060100E04040404040E005070703
:1012C0000600003810101010906005070706000097
:1012D0008890A0C0A0908805070706000080808045
:1012E000808080F805070706000088D8A8888888CD
:1012F000880507070600008888C8A8988888050719
:10130000070600007088888888887005070706002F
:1013100000F08888F080808005070706000070884C
:101320008888A89068050707060000F08888F0A064
:10133000908805070706000070888070088870058F
:101340000707060000F820202020202005070706B8
:10135000000088888888888870050707060000884C
:1013600088888850502005070706000088888888EC
:10137000A8A85005070706000088885020508888D4
:101380000507070600008888502020202005070751
:10139000060000F80810204080F80309090601FF44
:1013A000E080808080808080E00507070600008064
:1013B0004040201010080309090601FFE02020200A
:1013C00020202020E00503030600052050880501A9
:1013D000010600FEF8030303060105804020050511
:1013E0000506000070087888780507070600008069
:1013F00080F0888888F005050506000070808088E8
:1014000070050707060000080878888888780505B1
:10141000050600007088F0807005070706000030A0
:101420004840E04040400507070600FE7088888875
:101430007808700507070600008080F08888888893
:101440000307070601004000C0404040E0040909CE
:101450000601FE10003010101010906005070706FE
:10146000000080808890E09088030707060100C094
:101470004040404040E0050505060000D0A8A8A86F
:10148000A8050505060000B0C8888888050505067A
:10149000000070888888700507070600FEF08888BD
:1014A00088F080800507070600FE7888888878081D
:1014B00008050505060000B0C88080800505050602
:1014C000000078807008F00507070600002020F86B
:1014D00020202018050505060000888888986805E2
:1014E00005050600008888885020050505060000CF
:1014F0008888A8A850050505060000885020508857
:101500000507070600FE88888850204080050505ED
:10151000060000F8102040F80309090601FF2040EA
:10152000404080404040200109090602FF80808041
:101530008080808080800309090601FF8040404050
:10154000204040408005030306000248A890FF4168
:1015500042530054505500504300504C41004D6FD1
:10156000766520246D6D00302E303235004D6F765B
:101570006520302E316D6D004D6F766520316D6DBB
:10158000004D6F76652031306D6D004D6F766520B2
:101590002A002100486F74656E6420746F6F2063A9
:1015A0006F6C64004261636B0050726F63656564C9
:1015B000004D6F76652045787472756465720054CD
:1015C000310053656C656374202A005430004D6F00
:1015D00076652040004732385A0047323859004873
:1015E0006F6D6520400047323858004175746F2098
:1015F000486F6D6500473238004D6F74696F6E003B
:1016000044697361626C65205374657070657273B0
:10161000004D383400426564205472616D6D696E0E
:101620006700486F6D696E67004D6F766520417881
:101630006973004D61696E00507265686561742060
:10164000242042656400507265686561742024201E
:10165000416C6C0050726568656174202420456E91
:1016600064207E00507265686561742024207E00CD
:1016700054656D706572617475726500436F6F6C4F
:10168000646F776E0046616E20537065656400423A
:101690006564004E6F7A7A6C65207E005A15571586
:1016A00053154F15507265686561742024004D61B3
:1016B000696E004261627973746570205A004261FC
:1016C000627973746570204000466C6F77207E00ED
:1016D000466C6F770046616E20537065656400420A
:1016E0006564004E6F7A7A6C65207E005370656584
:1016F00064004D61696E006F70656E005452494719
:101700004745524544003A20007A5F6D696E007982
:101710005F6D696E00785F6D696E005265706F7203
:1017200074696E6720656E6473746F702073746182
:101730007475730A00583A00000058430000524381
:1017400000004D4300000000000000000000000009
:1017500020746F6F206C6F6E67206578747275737C
:10176000696F6E2070726576656E7465640A00201C
:10177000636F6C6420657874727573696F6E207026
:10178000726576656E7465640A00000000000000F2
:101790000000000000005761726E696E673A2048D1
:1017A0006F6D696E672042756D702044697669734C
:1017B0006F72203C20310A000202040000584300EE
:1017C00000524300004D430000A0400000A0400034
:1017D00000004000000001000000010000800055F2
:1017E0005555000000400033333300AAAA2A0049AF
:1017F00092240000002000C7711C0099991900D1A3
:10180000451700555515003BB1130024491200112E
:10181000111100000010000F0F0F00E3380E0043FD
:10182000790D00CCCC0C00C3300C00E8A20B006496
:10183000210B00AAAA0A00703D0A009DD8090042A7
:101840007B090092240900DCD30800888808001076
:1018500042080000000800F0C107008787070075F4
:10186000500700711C07003EEB0600A1BC06006992
:1018700090060066660600703E06006118060017B6
:10188000F4050074D105005BB00500B2900500625C
:101890007205005555050078390500B81E0500058C
:1018A0000505004EEC040087D40400A1BD0400909F
:1018B000A7040049920400C17D0400EE690400C73A
:1018C000560400444404005C320400082104004132
:1018D000100400000004003FF00300F8E0030026BD
:1018E000D20300C3C30300CCB503003AA803000A27
:1018F0009B0300388E0300C08103009F750300D056
:10190000690300505E03001D530300344803009137
:101910003D03003333030016290300381F030097EB
:10192000150300300C0300030303000BFA02004907
:10193000F10200BAE802005CE002002DD802002D9E
:10194000D0020059C80200B0C0020031B90200DA6A
:10195000B10200AAAA0200A0A30200BC9C0200FAE5
:101960009502005C8F0200DF88020082820200453F
:101970007C02002776020027700200436A02007C86
:10198000640200D05E02003F590200C853020020EA
:101990006C696D6974656420746F2000204D6178F6
:1019A00020004A65726B00FFFDFCFAF8F6F4F2F0D5
:1019B000EEECEAE9E7E5E3E1E0DEDCDAD9D7D5D41D
:1019C000D2D0CFCDCBCAC8C7C5C3C2C0BFBDBCBAB9
:1019D000B9B7B6B4B3B2B0AFADACAAA9A8A6A5A426
:1019E000A2A1A09E9D9C9A99989795949392908F6E
:1019F0008E8D8B8A8988878684838281807F7E7D95
:101A00007B7A797877767574737271706F6E6D6C9E
:101A10006B6A696867666564636261605F5E5D5C8E
:101A20005B5A5958585756555453525150504F4E6F
:101A30004D4C4B4A4A494847464645444342424139
:101A4000403F3E3E3D3C3B3B3A39383837363535F2
:101A5000343332323130302F2E2E2D2C2B2B2A299D
:101A60002928272726252524232322212120201F3A
:101A70001E1E1D1C1C1B1B1A1919181817161615CB
:101A80001514131312121111100F0F0E0E0D0D0C51
:101A90000C0B0A0A090908080707060605050404CD
:101AA0000303020201000020746F6F206C6F6E67E9
:101AB00020657874727573696F6E207072657665D3
:101AC0006E7465640A0020636F6C642065787472BC
:101AD0007573696F6E2070726576656E7465640AE1
:101AE0000053657474696E67732053746F72656414
:101AF00000290A002062797465733B2063726320B9
:101B00000053657474696E67732053746F726564F3
:101B100020280048617264636F64656420446566D0
:101B200061756C742053657474696E6773204C6FB3
:101B3000616465640020286D6D29002046002048FE
:101B40000020204D3134352053004D617465726999
:101B5000616C2068656174757020706172616D657B
:101B60007465727300203B20286D696E757465730F
:101B7000290A0020204D3235352053004469737006
:101B80006C617920536C6565700020204D313439CB
:101B90002043203B20556E69747320696E20436595
:101BA0006C736975730A0054656D70657261747544
:101BB000726520556E697473002020473231203BD6
:101BC000004C696E65617220556E697473004545FD
:101BD00050524F4D206461746173697A652065725B
:101BE000726F722E0A0053746F726564207365748D
:101BF00074696E67732072657472696576656400D6
:101C0000290A002062797465733B206372632000A7
:101C10002073746F7265642073657474696E677382
:101C200020726574726965766564202800454550A8
:101C3000524F4D20435243204572726F720020284C
:101C400063616C63756C6174656429210A002021ED
:101C50003D2000454550524F4D20435243206D6971
:101C6000736D61746368202D202873746F726564CE
:101C70002920002053697A653A2000496E6465780E
:101C80003A200000009643000096430000204200E6
:101C90000034420000A0420000A04200004843007F
:101CA00080B84328230000282300006400000010AF
:101CB000270000454550524F4D2056657273696F9D
:101CC0006E204572726F7200204D61726C696E3DBC
:101CD000563837290A00454550524F4D20766572D7
:101CE00073696F6E206D69736D6174636820284538
:101CF0004550524F4D3D0020436F756E7420583A49
:101D00000000004532004265640045310045006234
:101D10006564002C2073797374656D2073746F7023
:101D200070656421204865617465725F49443A209A
:101D3000004572723A204D415854454D50004D4176
:101D40005854454D50207472696767657265640028
:101D500048656174696E67204661696C6564004816
:101D6000656174696E67206661696C6564004D35F4
:101D70003234004D3131322053687574646F776EA0
:101D8000004572723A204D494E54454D50004D4920
:101D90004E54454D502074726967676572656400E2
:101DA000544845524D414C2052554E4157415900DF
:101DB000546865726D616C2052756E61776179004F
:101DC000202800202F002040002042403A002040E0
:101DD0003A0020573A002053004D31303620500051
:101DE000496E76616C696420657874727564657299
:101DF0000A0041637469766520457874727564657C
:101E0000723A20004730205832323920463732307B
:101E1000300A473020593139390A47302058323397
:101E2000350A473020593138352E350A4730205889
:101E3000323239004739300A4730205832313020A9
:101E400046373230300A473020593136350A47306C
:101E500020583231360A4730205832313620593135
:101E600038342E350A4730205832313000000021F6
:101E700000240027002A002D00300033000101005B
:101E800000040107010A017C3C3E5E2B3D3F2F5BB5
:101E90005D3B2C2A225C00434F4D4D554E4943413A
:101EA00054494F4E0044525952554E004552524FDC
:101EB000525300494E464F004543484F0053544F3C
:101EC000505045442E20005072696E746572207324
:101ED000746F707065642064756520746F2065721E
:101EE000726F72732E20466978207468652065725F
:101EF000726F7220616E6420757365204D393939B7
:101F000020746F20726573746172742E202854657A
:101F10006D70657261747572652069732072657386
:101F200065742E205365742069742061667465722F
:101F30002072657374617274696E67290A004E6F4E
:101F400020436865636B73756D2077697468206CD6
:101F5000696E65206E756D6265722C204C617374BC
:101F6000204C696E653A20004E6F20436865636BB4
:101F700073756D2077697468206C696E65206E7565
:101F80006D6265722C204C617374204C696E653AE9
:101F90002000636865636B73756D206D69736D6197
:101FA0007463682C204C617374204C696E653A2010
:101FB000004C696E65204E756D62657220697320F4
:101FC0006E6F74204C617374204C696E65204E7581
:101FD0006D6265722B312C204C617374204C696EDC
:101FE000653A20004D3131300053657269616C20D3
:101FF000737461747573206D69736D617463680ABD
:102000000053442072656164206572726F720A0029
:10201000746F6F206D75636820696E616374697693
:10202000652074696D65202D2063757272656E740C
:1020300020636F6D6D616E643A20002121204B4951
:102040004C4C2063617573656420627920004D6596
:102050006469612052656D6F76656400627573799D
:102060003A2070617573656420666F7220696E70C6
:1020700075740A00627573793A20706175736564CE
:1020800020666F7220757365720A00627573793A03
:102090002070726F63657373696E670A00506C65B8
:1020A000617365205265736574005052494E544502
:1020B000522048414C5445440025533A20255300B2
:1020C000706F7765726F6666004B494C4C45442EC5
:1020D00020005072696E7465722068616C7465646A
:1020E0002E206B696C6C28292063616C6C656421FF
:1020F0000A006563686F3A004572726F723A005069
:1021000072696E74696E67204F626A656374002538
:1021100053202569002F2F616374696F6E3A007335
:1021200074617274006E6F74696669636174696F5B
:102130006E2000656E6400486F74656E6420746F75
:102140006F20636F6C640A0053656E64204D3130FC
:102150003820746F20726573756D650A00496E735F
:102160006572742066696C616D656E7420616E6461
:102170002073656E64204D3130380A005265686501
:10218000617420446F6E6500526568656174696EA4
:10219000672E2E2E00526568656174004865617473
:1021A00065722054696D656F75740053656E6420A7
:1021B0004D31303820746F2068656174206E6F7AFD
:1021C0007A6C650A004E6F7A7A6C65205061726B8A
:1021D00065640070617573656400506175736500B6
:1021E000726573756D656400526573756D696E67B0
:1021F0000020440020204D32303020540020204D5B
:10220000323030205300202844697361626C656469
:10221000293A0046696C616D656E7420736574744B
:10222000696E67730020204D3230312058004D61B7
:102230007820416363656C65726174696F6E2028F4
:10224000756E6974732F7332290020204D3230333C
:102250002058004D6178206665656472617465730D
:102260002028756E6974732F732900205200202076
:102270004D323034205000416363656C6572617487
:10228000696F6E2028756E6974732F733229202848
:10229000503C7072696E742D616363656C3E2052B0
:1022A0003C726574726163742D616363656C3E207A
:1022B000543C74726176656C2D616363656C3E2974
:1022C0000020540020530020204D323035204200A1
:1022D000416476616E6365642028423C6D696E5F7F
:1022E0007365676D656E745F74696D655F75733E68
:1022F00020533C6D696E5F66656564726174653E0E
:1023000020543C6D696E5F74726176656C5F6665C2
:102310006564726174653E20583C6D61785F6A65E2
:10232000726B3E20593C6D61785F6A65726B3E202E
:102330005A3C6D61785F6A65726B3E20453C6D6109
:10234000785F6A65726B3E290020204D323137007C
:10235000546F6F6C2D6368616E67696E6700202033
:102360004D323138205400486F74656E64206F66BA
:1023700066736574730020440020490020204D33AB
:102380003031204500486F74656E64205049440028
:1023900020440020490020204D333034205000429A
:1023A0006564205049440020204D393037205800C2
:1023B00053746570706572206D6F746F72206375F1
:1023C0007272656E74730020646174613A002062F9
:1023D000797465733A003A2066726F6D3A0069321B
:1023E000632D7265706C79004261642069326320EC
:1023F000726571756573740A00203B0020550020DA
:102400004C0020204D36303320540046696C616DFD
:10241000656E74206C6F61642F756E6C6F61640003
:102420003B200020496E76616C6964206578747287
:10243000756465722000536C6565702E2E2E004900
:102440006E76616C696420736C6F742E20546F74A7
:10245000616C3A20310A00496E76616C69642073C0
:102460006C6F742E20546F74616C3A20310A004EE8
:102470006F204D6F76652E00456E642066696C6531
:10248000206C6973740A00426567696E2066696C26
:1024900065206C6973740A004E6F206D6564696114
:1024A0000A00526573756D696E6720534400286E8B
:1024B0006F2066696C65290043757272656E7420C1
:1024C00066696C653A20002E0A0044656C65746983
:1024D0006F6E206661696C65642C2046696C653A94
:1024E000200046696C652064656C657465643A001B
:1024F00043616E6E6F74206F70656E2073756264D9
:10250000697220002569730025696D2025697300B3
:102510002569682025696D20256973002569642077
:102520002569682025696D20256973002569792052
:10253000256964202569682025696D202569730057
:102540005072696E742074696D653A20006F6B007B
:102550006F666600B81EB31EAC1EA51E971E4445CE
:102560004255473A004D313133205300556C746960
:102570006D616B6572204F726967696E616C2B20AB
:10258000445855204F46462E00434F4E4649475F1C
:102590004558504F5254004D4541545041434B0013
:1025A000434F4F4C45525F54454D50455241545551
:1025B0005245004348414D4245525F54454D5045B8
:1025C000524154555245004241425953544550508E
:1025D000494E470041524353004D4F54494F4E5FBF
:1025E0004D4F44455300544845524D414C5F505265
:1025F0004F54454354494F4E00455854454E444569
:10260000445F4D323000435553544F4D5F4649525D
:102610004D574152455F55504C4F4144004C464E3A
:102620005F5752495445004C4F4E475F46494C4511
:102630004E414D45004155544F5245504F52545F05
:1026400053445F5354415455530053445F575249C8
:10265000544500524550454154004D554C54495F36
:10266000564F4C554D45005344434152440050523F
:102670004F4D50545F535550504F525400484F5394
:10268000545F414354494F4E5F434F4D4D414E447B
:102690005300454D455247454E43595F50415253B3
:1026A000455200434153455F4C494748545F4252AD
:1026B000494748544E45535300544F47474C455F94
:1026C0004C494748545300534F4654574152455F75
:1026D000504F574552004255494C445F5045524374
:1026E000454E54004C4556454C494E475F44415475
:1026F00041005A5F50524F42450052554E4F55547B
:10270000004155544F4C4556454C005052494E548B
:102710005F4A4F420050524F475245535300415574
:10272000544F5245504F52545F54454D50004155FF
:10273000544F5245504F52545F504F5300564F4CD8
:10274000554D455452494300454550524F4D004266
:10275000494E4152595F46494C455F5452414E5390
:102760004645520053455249414C5F584F4E5F58C1
:102770004F4646004649524D574152455F4E414DE6
:10278000453A4D61726C696E206275676669782D95
:10279000322E312E782028446563203237203230A3
:1027A00032322032323A31383A34372920534F55B9
:1027B0005243455F434F44455F55524C3A676974F5
:1027C0006875622E636F6D2F556C74696D616B65F2
:1027D000722F4D61726C696E2050524F544F434FAF
:1027E0004C5F56455253494F4E3A312E30204D41A1
:1027F0004348494E455F545950453A556C74696D8C
:10280000616B6572204F726967696E616C2B204441
:1028100058552045585452554445525F434F554EE4
:10282000543A3220555549443A6365646532613201
:10283000662D343161322D343734382D39623132DE
:102840002D633535633632663336376666002F2F93
:10285000004D31343520533C696E6465783E206FFD
:102860007574206F662072616E67652028302D3187
:10287000290A0020580020204D61783A20002000CD
:1028800020204D696E3A2000203B200020204D3250
:102890003131205300536F667420656E6473746F1A
:1028A00070730046523A0020466C6F773A20004918
:1028B0006E76616C69642065787472756465720AFD
:1028C000004261642049324320616464726573731D
:1028D0002028382D313237290A0064697300656E6B
:1028E0000043290A0061626C656420286D696E20CE
:1028F00074656D702000436F6C6420657874727528
:10290000646573206172652000454550524F4D202B
:102910004F4B0A003F28422961756420726174653B
:1029200020696D706C61757369626C652E0A002098
:102930006261756420726174652073657420746FC0
:1029400020002053657269616C20004F46460A00E2
:1029500043617365206C696768743A200020204DDC
:10296000323036205800486F6D65206F666673659B
:1029700074004F666673657473204170706C69658E
:1029800064004572723A20546F6F206661722100B4
:10299000546F6F206661722066726F6D207265667B
:1029A0006572656E636520706F696E740A004469B4
:1029B00066663A2020200046726F6D5374703A00AC
:1029C000537465707065723A005261773A20202026
:1029D00020000A4C6F676963616C3A00436F756E43
:1029E0007420453A004361703A004D302053746FB3
:1029F00070004D312053746F7000436C69636B201D
:102A0000746F20526573756D652E2E2E0020204D3B
:102A10003235302043004C434420436F6E74726162
:102A200073740047322F47332062616420706172F3
:102A3000616D65746572730A004D383400507269B7
:102A40006E7420446F6E6500446F6E65207072690D
:102A50006E74696E672066696C650A004D373700D1
:102A60004D333100436F6F6C696E672E2E2E00451B
:102A700025632025530020453A00205A3A0020596A
:102A80003A0020583A0043616E6E6F74206F706593
:102A90006E2073756264697220004D6564696120FF
:102AA000496E6974204661696C0053442063617209
:102AB00064206F6B0A006F70656E526F6F742066D2
:102AC00061696C65640A00766F6C756D652E696E60
:102AD0006974206661696C65640A004E6F20534416
:102AE00020636172640A005344206361726420723F
:102AF000656C65617365640A000A4D3234004D32BD
:102B000033202573002E0A006F70656E20666169A0
:102B10006C65642C2046696C653A200046696C65DA
:102B20002073656C65637465640A002053697A6577
:102B30003A200046696C65206F70656E65643A20C6
:102B400000454E4420535542524F5554494E450A74
:102B5000002220706F73002220706172656E743ADB
:102B60002200535542524F5554494E452043414C43
:102B70004C207461726765743A2200537562636118
:102B80006C6C204F766572666C6F77004578636574
:102B900065646564206D617820535542524F5554E9
:102BA000494E452064657074683A005772697469CB
:102BB0006E6720746F2066696C653A20004E6F74F2
:102BC000205344207072696E74696E670A00534422
:102BD000207072696E74696E672062797465200076
:102BE000667265736800646F696E67002066696C61
:102BF000653A20004E6F7720002F6175746F256352
:102C00002E6700FFE0FFD1AFFF32FFD0FFFEFFE0F5
:102C1000FFD1AEFFD0FFFEFFE0FFD11000FFFEFFAF
:102C2000D0FFE0FFC1FFD1FD12AED5A0A83F3D000F
:102C300040A1C8DA1281DFD982DB34A4A6FFBFFF2E
:102C400032AFFF32FFD0FFFE6D61726C696E667746
:102C50002E6F7267006275676669782D322E312E8D
:102C600078001FFFFFFFFFFFFF600000000001FF73
:102C7000400000000000FF8000000000007F83CFC4
:102C800000000C303F87FF80000C301F86798000E9
:102C90000C000F8C30C7838C30E78C30CFC7CC3121
:102CA000F38C30DCECEC33B98C30D86C6C33198C91
:102CB00030D06C0C33198C30D86C0C33198C30DC60
:102CC0006C0E3B198C30CF7C079F198C30C77C036E
:102CD0008F194000000000000260000000000006A4
:102CE0001FFFFFFFFFFFF800000000300E0100C0D3
:102CF0000E0A00500F1400D00F1E0060102800E0D4
:102D000010320070113C00F01146007012500000AB
:102D1000135A008013640000146E009014780010A1
:102D200015820090158C00101696009016A00010C9
:102D300017AA009017B4001018BE009018C8001011
:102D400019D2009019DC00101AE600801AF0000079
:102D50001BFA00801B0401F01B0E01701C1801F00F
:102D60001C2201601D2C01E01D3601501E4001D0C7
:102D70001E4A01401F5401B01F5E0130206801A0AF
:102D800020720110217C01902186010022900160B7
:102D900026F401902A5802802EBC0250322003E013
:102DA0003584035039E803803C4C042020506C618A
:102DB0006E6E657242756666657242797465733AC5
:102DC00020002046726565204D656D6F72793A204E
:102DD0000020436F6D70696C65643A204465632020
:102DE000323720323032320A00204C617374205561
:102DF0007064617465643A20323032322D30392D7E
:102E00003238207C20417574686F723A2028416EF8
:102E1000736F6E204C69752C20554D4F2B204458F4
:102E200055290A004D61726C696E2062756766698A
:102E3000782D322E312E780A0020536F6674776118
:102E400072652052657365740A0020576174636867
:102E5000646F672052657365740A002042726F7751
:102E60006E206F75742052657365740A0020457872
:102E70007465726E616C2052657365740A00506FE0
:102E800077657255700A0073746172740A0047396D
:102E9000322045300A473120452D330A473237006A
:102EA0004D31303031006572726F72207772697403
:102EB000696E6720746F2066696C650A00446F6EE6
:102EC0006520736176696E672066696C652E0A00FD
:102ED0004D323900456E6473746F70730025532052
:102EE000256320256320256320256300205A3A00AE
:102EF00020593A0020583A00656E6473746F7073FD
:102F0000206869743A200000002200250028002B68
:102F1000002E003100340002010000050108010B01
:102F20000105050505070508080808020202020A4E
:102F30000A0808040404040101010101010101035C
:102F400003030303030303040707070C0C0C0C0C17
:102F50000C0C0C0202020206060606060606060B0A
:102F60000B0B0B0B0B0B0B07070A0A0A0A0A0A05C5
:102F70000505040404080801021020200808102098
:102F800040102040800201020108040201010204F5
:102F900008102040808040201008040201800402B4
:102FA000018040201008040201080402010102040B
:102FB00008102040800102040810204080100804FE
:102FC0000880102040044080102040048000000A47
:102FD0000B02090C0D0E080703040100000000009D
:102FE00000000000000000000000000000000000E1
:102FF000000000000000000000121110000000009E
:1030000000000000000000000000000000000000C0
:1030100000000000000000000000000000000000B0
:1030200000000024F404D9201BC40C5C0E9804C4D6
:10303000095F0265077101F405F900FB04B300485C
:10304000048700C10369005803550003034500BE0F
:10305000023A008402310053022A002902250004AA
:10306000022000E4011C00C8011900AF01170098FC
:10307000011400840113007101100061011000515E
:10308000010E0043010D0036010B002B010B002047
:10309000010B00150109000C01090003010800FBE8
:1030A000000800F3000800EB000700E4000600DE63
:1030B000000600D8000600D2000600CC000500C7BC
:1030C000000500C2000500BD000400B9000400B501
:1030D000000400B1000400AD000400A9000400A534
:1030E000000300A20003009F0004009B000300985F
:1030F0000003009500020093000300900003008D80
:103100000002008B00030088000200860002008499
:10311000000300810002007F0002007D0002007BAE
:1031200000020079000200770001007600020074BE
:1031300000020072000100710002006F0002006DC9
:103140000001006C0002006A0001006900020067D3
:1031500000010066000100650001006400020062D9
:1031600000010061000100600001005F0002005DDD
:103170000001005C0001005B0001005A00010059E1
:1031800000010058000100570001005600010055E1
:1031900000010054000100530000005300010052E0
:1031A00000010051000100500001004F0001004EDD
:1031B0000000004E0001004D0001004C0001004BDA
:1031C0000000004B0001004A0001004900010048D6
:1031D00000000048000100470001004600000046D2
:1031E00000010045000000450001004400010043CB
:1031F00000000043000100420000004200010041C5
:1032000000000041000100400001003F0000003FBD
:103210000001003E0000003E0001003D0000003DB6
:103220000001003C0000003C0000003C0001003BAD
:103230000000003B0001003A0000003A00010039A4
:10324000000000390001003800000038000000389C
:103250000001003700000037000100360000003692
:103260000000003600010035000000350000003588
:10327000000100340000003400000034000100337D
:103280000000003300000033000100320000003273
:103290000000003200010031000000310000003168
:1032A0000001003000000030000000300001002F5D
:1032B0000000002F0000002F0000002F0001002E52
:1032C0000000002E0000002E0001002D0000002D47
:1032D0000000002D0000002D0001002C0000002C3B
:1032E0000000002C0000002C0001002B0000002B2F
:1032F0000000002B0000002B0001002A0000002A23
:103300000000002A0000002A000100290000002916
:103310000000002900000029000000290001002809
:1033200000000028000000280000002800000028FD
:1033300000010027000000270000002700000027F0
:1033400000000027000100260000002600000026E3
:1033500000000026000000260001002500000025D6
:1033600000000025000000250000002500000025C9
:1033700000010024000000240000002400000024BC
:1033800000000024000100230000002300000023AF
:1033900000000023000000230000002300000023A1
:1033A0000001002200000022000000220000002294
:1033B0000000002200000022000100210000002186
:1033C0000000002100000021000000210000002179
:1033D000000000210001002000000020000000206B
:1033E000000000200000002000000020000000205D
:1033F000000000200001001F0000001F0000001F4F
:103400000000001F0000001F0000001F0000001F40
:103410000001001E0000001E0000001E0000001E33
:1034200000000024F4D43050C38E20C2A240178282
:103430008B7011127A910D816CD90AA861E108C7CD
:10344000586607615143061E4B5D05C145A7041A26
:10345000411104093D9803713931034036DB02659F
:10346000339102D4305402802E1D02632CEE01757C
:103470002AC501B028A001102781018F2564012BE6
:10348000244B01E0223401AC211F018D200D01806D
:103490001FFC00841EED00971DDF00B81CD200E663
:1034A0001BC600201BBC00641AB200B219A8000A97
:1034B00019A0006A189900D117910040178B00B528
:1034C00016840031167E00B31579003A157300C7D3
:1034D000146F0058146A00EE136600881363002509
:1034E000135E00C7125B006C12570015125400C126
:1034F00011510070114F0021114B00D61049008D61
:103500001047004610440002104200C00F400080E7
:103510000F3E00420F3C00060F3B00CB0E380093DD
:103520000E37005C0E3500270E3400F30D3200C15B
:103530000D3100900D3000600D2E00320D2D000574
:103540000D2C00D90C2B00AE0C2900850C29005C39
:103550000C2700350C27000E0C2600E80B2400C4B5
:103560000B2400A00B23007D0B23005A0B210039F4
:103570000B2100180B2000F80A1F00D90A1E00BBFF
:103580000A1E009D0A1D00800A1D00630A1C0047D8
:103590000A1B002C0A1B00110A1A00F7091A00DD89
:1035A000091900C4091900AB091900920917007B19
:1035B000091800630917004C091600360916002087
:1035C0000916000A091500F5081500E0081400CCDA
:1035D000081400B8081400A4081400900813007D13
:1035E0000812006B08130058081200460812003435
:1035F000081100230811001208110001081100F041
:10360000071000E0071000D0071000C0071000B03E
:10361000070F00A107100091070E0083070F007429
:10362000070F0065070E0057070E0049070E003B05
:10363000070D002E070E0020070D0013070D0006D2
:10364000070D00F9060C00ED060D00E0060C00D495
:10365000060C00C8060C00BC060C00B0060C00A44A
:10366000060B0099060C008D060B0082060B0077F6
:10367000060B006C060B0061060A0057060B004C97
:10368000060A0042060A0038060A002E060A00242E
:10369000060A001A060A001006090007060A00FDBD
:1036A000050900F4050900EB050900E2050900D948
:1036B000050900D0050900C7050900BE050900B5C8
:1036C000050800AD050800A50509009C0508009443
:1036D0000508008C050800840508007C05080074B6
:1036E0000508006C050700650508005D0507005624
:1036F0000508004E0507004705070040050800388B
:10370000050700310507002A050700230507001CEF
:10371000050600160507000F05070008050600024C
:10372000050700FB040600F5040700EE040600E8A8
:10373000040600E2040700DB040600D5040600CFFF
:10374000040600C9040600C3040600BD040600B751
:10375000040600B1040500AC040600A6040600A09F
:103760000405009B04060095040500900406008AE9
:1037700004050085040500800406007A0405007530
:10378000040500700405006B040500660405006173
:103790000405005C04050057040500520405004DB3
:1037A00004050048040500430405003E0404003AF3
:1037B00004050035040500300404002C040500272E
:1037C000040400230405001E0404001A0404001667
:1037D000040500110404000D04040009040500049C
:1037E00004040000040400FC030400F8030400F4D3
:1037F000030400F0030400EC030400E8030400E405
:10380000030400E0030400DC030400D8030400D434
:10381000030400D0030400CC030400C8030300C564
:10382000030300393000003325000087190000B081
:103830000F0000DB080000BD040000740200003F20
:103840000100004572726F722077726974696E6749
:1038500020746F20454550524F4D210A0070726F01
:103860006D70745F0073686F7700627574746F6E4B
:1038700000626567696E0050757267654D6F7265AD
:103880000050617573656400436F6E74696E756591
:10389000004C6F61642046696C616D656E742054E4
:1038A00000496E736572742066696C616D656E7433
:1038B00020616E642073656E64204D3130380A00DB
:1038C000486F6D696E67204661696C656400FFFF33
:1038D000FF822A7E2A7A2A762A204500205A002052
:1038E000590020204D3932205800537465707320E0
:1038F00070657220756E697400220A00556E6B6ED9
:103900006F776E20636F6D6D616E643A20220020C8
:1039100042002050006F6B00486F6D6520257325B5
:10392000732573204669727374004F4646004F4EEC
:1039300000204553500A00204E53500A005B4D5062
:103940005D205056303120006F6B0A005265736560
:103950006E643A2000556C74696D616B6572204F1E
:10396000726967696E616C2B2044585520526561FD
:1039700064792E005072696E74696E672E2E2E0067
:103980005072696E742050617573656400009C000C
:10399000BE0011241FBECFEFD1E2DEBFCDBF00E0DD
:1039A0000CBF84B78093C81C14BE0FB6F894A895BA
:1039B00080916000886180936000109260000FBE6B
:1039C00014E0A0E0B2E0E4ECFAE902E00BBF02C0D0
:1039D00007900D92AC32B107D9F72CE1ACE2B4E01C
:1039E00001C01D92A83CB207E1F71CE1C8ECDCE184
:1039F00000E006C021970109802FFE010F94094ABB
:103A0000C73CD10780E00807A9F70F9482370D94CF
:103A1000514D0C9400008091CF1B8823C1F0815040
:103A20008093CF1BE1EBF9E1882351F08150990B92
:103A30002BE1289FF001299FF00D1124EF53F54E43
:103A40008BE1A6E9B9E101900D928A95E1F7209109
:103A5000CF1B211105C08091DA1B80648093DA1B93
:103A600081E090E0A0E0B0E0211103C080E090E0B0
:103A7000DC018093720590937305A0937405B09355
:103A800075051092810581E080937E0583E0809327
:103A90007502089581E080938A0F089582E08093F3
:103AA0008A0F08958F929F92AF92BF92CF92DF922A
:103AB000EF92FF92CF936B017C0120E030E0A901EF
:103AC0000F94424387FFA3C06DEB77E386E095EB4D
:103AD000A70196010F94184A6B017C0120E030E0A9
:103AE00040E251E40F94A74320E030E048EC52E478
:103AF0000F94A7434B015C0120E030E040E251EC21
:103B0000C701B6010F944243181654F420E030E088
:103B100048EC52E4C701B6010F943F4C87FD8BC0BF
:103B200020E030E0A901C701B6010F94424387FFAE
:103B300073C060E070E080EA90ECA50194010F94FE
:103B4000184A20E030E040E251E40F94F44A0F9428
:103B50005C4B6B017C01F7FC64C020E137E240E084
:103B600050E00F948E49CA01B9012AE030E040E0EC
:103B700050E00F948E49605D60938305C701B601E4
:103B800028EE33E040E050E00F948E499AE0892E11
:103B9000912CA12CB12CCA01B901A50194010F945B
:103BA0008E49605D60938405C701B60124E630E06C
:103BB00040E050E00F948E49CA01B901A50194017B
:103BC0000F948E49605D609385058EE28093860533
:103BD000C701B601A50194010F948E49C62FCA01F1
:103BE000B901A50194010F948E49605D609387052A
:103BF000C05DC093880583E895E0CF91FF90EF907A
:103C0000DF90CF90BF90AF909F908F9008956DEB15
:103C100077E386E095E35CCF60E070E080EA90E4D3
:103C20008CCFF094E094D094C094C11CD11CE11CC2
:103C3000F11C6DE2A1CF20E030E0A901C701B6017F
:103C40000F94424387FF6AC060E070E080EA90EC26
:103C5000A50194010F94184A20E030E040E251E4BD
:103C60000F94F44A0F945C4B4B015C0120E030E070
:103C7000A901C701B6010F943F4C87FD0BC020E09E
:103C800030E040E251E4C701B6010F94424360E2E4
:103C900087FD13C0B7FC47C0C501B40128EE33E06F
:103CA00040E050E00F948E49CA01B9012AE030E0AB
:103CB00040E050E00F948E49605D60938405C5013B
:103CC000B40124E630E040E050E00F948E498AE0F1
:103CD000C82ED12CE12CF12CCA01B901A701960103
:103CE0000F948E49605D609385058EE28093860512
:103CF000C501B401A70196010F948E49C62FCA01D0
:103D0000B901A70196010F948E49605D6093870504
:103D1000C05DC093880584E895E06FCF60E070E0F7
:103D200080EA90E495CFB094A09490948094811C04
:103D3000911CA11CB11C6DE2C0CFCF93DF93EC01AD
:103D4000CB01BA010F9448430F94614B6883DF9114
:103D5000CF910895CF93DF93EC01CB01BA010F947B
:103D6000484329EC38EC48EC5EE30F94F44A20E039
:103D700030E040E05FE30F94184A0F94614B688392
:103D8000DF91CF91089580912F020C94AE34E09191
:103D9000BE0986E0E802F0011124E252FA4F809158
:103DA0007A0590E09583848308958091900F88230D
:103DB00069F0809164098770873041F485EF95E15F
:103DC00090937509809374091092900F08958F92C3
:103DD0009F92AF92BF92CF92DF92EF92FF92CF93DA
:103DE0006B017C0120E030E0A9010F94424387FD84
:103DF000C3C06DEB77E386E095E3A70196010F94CE
:103E0000184A6B017C0120E030E0A9010F94424385
:103E100087FFB7C0C701B601905820E030E040E20C
:103E200051E40F94A74320E030E040E251E40F94C6
:103E3000A74320E030E040EA50E40F94184A20E025
:103E400030E040E251E40F94F44A0F945C4B6B0174
:103E50007C0160E280EAC81686E8D80681E0E806C0
:103E6000F1048CF0C701B60120EA36E841E050E0E9
:103E70000F948E49CA01B9012AE030E040E050E0D9
:103E80000F948E49605D6093820560E280E1C81600
:103E900087E2D806E104F1048CF0C701B60120E105
:103EA00037E240E050E00F948E49CA01B9012AE0A0
:103EB00030E040E050E00F948E49605D60938305F0
:103EC00060E288EEC81683E0D806E104F1048CF0C5
:103ED000C701B60128EE33E040E050E00F948E4970
:103EE000CA01B9012AE030E040E050E00F948E4969
:103EF000605D6093840560E284E6C816D104E10445
:103F0000F1048CF0C701B60124E630E040E050E057
:103F10000F948E49CA01B9012AE030E040E050E038
:103F20000F948E49605D609385058AE0882E912C00
:103F3000A12CB12CC701B601A50194010F948E49A3
:103F4000C62FCA01B901A50194010F948E49605D85
:103F5000609386058EE280938705C05DC0938805D7
:103F600082E895E0CF91FF90EF90DF90CF90BF90E7
:103F7000AF909F908F9008956DEB77E386E095EB7F
:103F80003CCF20E030E040E251E4C701B60149CF28
:103F90008F929F92AF92BF92CF92DF92EF92FF9259
:103FA000CF936B017C0120E030E0A9010F944243E4
:103FB00087FD93C06DEB77E386E095E3A70196015B
:103FC0000F94184A6B017C0120E030E040E251E49C
:103FD0000F94A74320E030E04AE754E40F94A7434E
:103FE0004B015C0120E030E0A901C701B6010F944C
:103FF000424320E030E040EA50E487FF04C020E084
:1040000030E040EA50ECC501B4010F94184A20E0BA
:1040100030E040E251E40F94F44A0F945C4B6B01A2
:104020007C01C114D104E104F10409F45BC0F7FE82
:1040300059C0F094E094D094C094C11CD11CE11CF0
:10404000F11C8DE280938305C701B60128EE33E0B1
:1040500040E050E00F948E498AE0882E912CA12CEC
:10406000B12CCA01B901A50194010F948E49605D7C
:10407000609384058EE280938505C701B60124E62E
:1040800030E040E050E00F948E49CA01B901A5012B
:1040900094010F948E49605D60938605C701B60157
:1040A000A50194010F948E49C62FCA01B901A5013B
:1040B00094010F948E49605D60938705C05DC09345
:1040C000880583E895E0CF91FF90EF90DF90CF9047
:1040D000BF90AF909F908F9008956DEB77E386E04F
:1040E00095EB6CCF80E2AECFCF93DF93EC01CB01A9
:1040F000BA010F94484320E030E040E251E40F94CD
:10410000F44A688379838A839B83DF91CF910895F2
:104110000F94484320E030E040E251E40F94F44A29
:1041200056CECF93DF93EC01CB01BA010F944843F5
:10413000688379838A839B83DF91CF910895CF939E
:10414000DF93EC01CB01BA010F9448436883798374
:104150008A839B83DF91CF910895CF93DF93EC0106
:10416000CB01BA010F94484320E030E048EC52E420
:104170000F94F44A688379838A839B83DF91CF917C
:104180000895CF93DF93EC01CB01BA010F9448431C
:1041900020E030E048EC52E40F94F44A68837983DD
:1041A0008A839B83DF91CF910895CF93DF93EC01B6
:1041B000CB01BA010F9448432AE037ED43E25DE3B7
:1041C0000F94F44A0F94614B688379838A839B83AD
:1041D000DF91CF910895CF93DF93EC01CB01BA012A
:1041E0000F9448432AE037ED43E25DE30F94F44A2D
:1041F000688379838A839B83DF91CF910895CF93DE
:10420000DF93EC01CB01BA010F94484368837983B3
:104210008A839B83DF91CF9108950F94484320E0D8
:1042200030E048EC52E40F94F44A3CCCCF93DF9357
:10423000EC01CB01BA010F9448430F945C4B798396
:104240006883DF91CF910895CF93DF93EC01CB0189
:10425000BA010F94484320E030E04AE754E40F9459
:10426000F44A688379838A839B83DF91CF91089591
:104270000F94484320E030E04AE754E40F94F44AB6
:1042800087CECF93DF93EC01CB01BA010F94484363
:104290002AE037ED43E25CE30F94F44A0F94614B5C
:1042A000688379838A839B83DF91CF910895FC0192
:1042B00084910895FC0180810895FC01A081B18161
:1042C0001C92A281B3818C918F5F8C930280F381C9
:1042D000E02D90818CE0989F800D1124E6E3FAE1B7
:1042E00013AE84AF089590E080E00895CF93DF93FC
:1042F000C0915F06D091600681E0CE31D105E4F037
:1043000020E030E040E05FE360915B0670915C0686
:1043100080915D0690915E060F94184A0F945C4B55
:104320006C1B7D0B77FF03C071956195710981E06E
:10433000633071050CF080E0DF91CF910895CF9349
:10434000DF93C0913404D0913504DF77209759F57D
:104350008091DA1B83FD2BC00E94DDD6882319F1E2
:104360008091D21B9091D31BA091D41BB091D51BEF
:104370000097A105B105B9F0BC01CD01615F784D91
:104380008F4F9F4F20E137E240E050E00F946C499F
:104390006091D61B7091D71B8091D81B9091D91B2F
:1043A0000F946C49E901CE01DF91CF910895C0E1EE
:1043B000D7E2F9CF0F9448430F94614B862F0C94AA
:1043C0009FB80F947D1710928B0F109273020E946A
:1043D000EBD6882331F085EC97E0909375098093B4
:1043E000740961E08EEB97E00E949CE50C94E2B4C6
:1043F0000F94484329EC38EC48EC5EE30F94F44A00
:1044000020E030E040E05FE30F94184A0F94614BE6
:10441000862F0C94C1B881E00C9440D6CF93DF93E3
:1044200000D0CDB7DEB78FEF89838A838B83CE012F
:1044300001960E94E0D40F900F900F90DF91CF91E2
:104440000895CF93DF9300D0CDB7DEB78FEF898388
:104450001A821B82CE0101960E94E0D40F900F9029
:104460000F90DF91CF910895CF93DF9300D0CDB718
:10447000DEB78FEF898380E58A831B82CE010196A8
:104480000E94E0D40F900F900F90DF91CF9108958C
:10449000CF93DF9300D0CDB7DEB78FEF89838A83C8
:1044A0001B82CE0101960E94E0D40F900F900F90D6
:1044B000DF91CF910895CF93DF9300D0CDB7DEB7D2
:1044C00019821A828FEF8B83CE0101960E94E0D46D
:1044D0000F900F900F90DF91CF910895CF93DF93BE
:1044E00000D0CDB7DEB719828FEF8A838B83CE01E0
:1044F00001960E94E0D40F900F900F90DF91CF9122
:104500000895CF93DF9300D0CDB7DEB78FEF8983C7
:104510001A828B83CE0101960E94E0D40F900F90F7
:104520000F90DF91CF9108952F923F924F925F921B
:104530006F927F928F929F92AF92BF92CF92DF92B3
:10454000EF92FF920F931F93CF93DF93162F072FB6
:10455000242EFC0180809180A280B380C501B4012B
:1045600020E13EE040E050E00F946C49E22ED32E73
:10457000C22FD32F8CE3482E512C612C712CC501F6
:10458000B401A30192010F946C49C62E372ECA01C3
:10459000B901A30192010F946C49F62E772E2220C7
:1045A00059F1C501B40120E831E541E050E00F9434
:1045B0006C4969017F92FF92CE0168E170E00F942F
:1045C000E2499F938F933F932F938CE196E09F93C3
:1045D0008F930F931F930F94DB42EDB7FEB73A967C
:1045E0000FB6F894FEBF0FBEEDBF88E0FAE0CF161D
:1045F000D104C8F089E017C0209741F53F92CF92CF
:104600007F936F9380E196E09F938F930F931F9317
:104610000F94DB428DB79EB708960FB6F8949EBFF5
:104620000FBE8DBF85E0DF91CF911F910F91FF905D
:10463000EF90DF90CF90BF90AF909F908F907F9042
:104640006F905F904F903F902F900895C436D105A2
:10465000A8F47F936F93DF92EF9284E096E09F93AC
:104660008F930F931F930F94DB42EDB7FEB73896ED
:104670000FB6F894FEBF0FBEEDBFD4CF7F936F93FC
:10468000DF92EF928AEF95E09F938F930F931F93A2
:104690000F94DB428DB79EB708960FB6F8949EBF75
:1046A0000FBE8DBF86E0BFCFCF92DF92EF92FF9219
:1046B0006B017C0120E030E0A9010F94424387FDAB
:1046C00026C06DEB77E386E095E3A70196010F9492
:1046D000184A6B017C0120E030E0A9010F944243AD
:1046E00020E030E040E05FE387FF04C020E030E0FE
:1046F00040E05FEBC701B6010F94184A0F945C4B82
:10470000CB01FF90EF90DF90CF900C946AB86DEBE7
:1047100077E386E095EBD9CF0F944843C5CF0F944C
:1047200048430F945C4BCB010C946AB8CF92DF9254
:10473000EF92FF920F931F930F944B210091C404AB
:104740001091C5042091C6043091C7046B017C010F
:10475000C01AD10AE20AF30A9701860137FD11C097
:104760002091C30420952093C3046A547C4F8F4F3B
:104770009F4F6093C4047093C5048093C6049093C4
:10478000C70481E09091C304911101C080E01F91A2
:104790000F91FF90EF90DF90CF900895CF93DF932C
:1047A000C0915F06D0916006209729F160915B0669
:1047B00070915C0680915D0690915E060F945C4B53
:1047C0006E5F7F4F24976C177D07ACF470932D06B6
:1047D00060932C060F944B21605A75418F4F9F4F69
:1047E00060932E0670932F068093300690933106C7
:1047F000DF91CF91089510922E0610922F061092FD
:10480000300610923106F4CF6AEA7AE084E690E04E
:104810000C9419CC63E972E084E690E00E9419CC14
:1048200070E060E08AE090E00E9419CC6AEB72E0F0
:1048300084E690E00C9419CC8111ECCF68E270E032
:1048400080E991E00C9419CC0E94318AF5CF0E9446
:104850008AB4F2CF0E945EB2DDCF80E090E0A0E8A3
:10486000B0E48093990F90939A0FA0939B0FB0930D
:104870009C0F84ED92E00E94E8AA80916905833044
:1048800014F010926905E0916905E7FD09C0E23076
:1048900004F180E090E0A8EDB2E4E23009F44CC00D
:1048A0008CEB92E00E94E8AA1092990F10929A0F56
:1048B00010929B0F10929C0F84ED92E00E94E8AA48
:1048C000809169058F5F83300CF04BC08093690540
:1048D000089580E090E0A0EFB1E48093910F909371
:1048E000920FA093930FB093940F8093950F909392
:1048F000960FA093970FB093980FEE0FFF0BE8540D
:10490000FD4F808191818330910591F08430910534
:10491000D9F0029729F680E090E0AAE3B3E480930F
:10492000910F9093920FA093930FB093940FB8CFE1
:1049300080E090E0AAE3B3E48093910F9093920F0C
:10494000A093930FB093940F80E090E0A4E3B3E4BE
:104950008093950F9093960FA093970FB093980F15
:104960009FCF109269050895CF93DF9300D01F92D7
:10497000CDB7DEB70F94614B0F94464369837A83BA
:104980008B839C83CE0101960E94F2B50F900F900D
:104990000F900F90DF91CF9108950F9448432AE034
:1049A00037ED43E25DE30F94F44ADECF0F944843C2
:1049B0002AE037ED43E25CE30F94F44AD5CFCF927F
:1049C000DF92EF92FF92CF93DF9300D01F92CDB78B
:1049D000DEB76B017C0120E030E0A9010F94424377
:1049E00087FD1BC06DEB77E386E095E3A701960199
:1049F0000F94184A69837A838B839C83CE01019636
:104A00000E94F2B50F900F900F900F90DF91CF9111
:104A1000FF90EF90DF90CF9008956DEB77E386E005
:104A200095EBE4CF0F9448432AE037ED43E25DE392
:104A30000F94F44AC4CF0F944843C1CFCF92DF9272
:104A4000EF92FF92CF93DF9300D01F92CDB7DEB7E6
:104A50006B017C0120E030E0A9010F94424387FD07
:104A60001BC06DEB77E386E095E3A70196010F94F9
:104A7000184A69837A838B839C83CE0101960E94B6
:104A800072B70F900F900F900F90DF91CF91FF9022
:104A9000EF90DF90CF9008956DEB77E386E095EB94
:104AA000E4CF0F944843CACFCF92DF92EF92FF92A8
:104AB000CF93DF9300D01F92CDB7DEB70F9448435A
:104AC00020E030E048EC52E40F94F44A6B017C01A2
:104AD00020E030E0A9010F9442432DEB37E346E09C
:104AE00055E387FF04C02DEB37E346E055EBC701E4
:104AF000B6010F94184A69837A838B839C83CE0115
:104B000001960E944DB50F900F900F900F90DF917E
:104B1000CF91FF90EF90DF90CF9008950C947E8D11
:104B20000C947E8D0C94308D0C94308D0C94308DC3
:104B30000C94308DCF92DF92EF92FF928091DD0541
:104B4000C12CD12C7601882379F00F944B216B0175
:104B50007C012091DD0530E0A0E6BAEE0F94BA4961
:104B6000C60ED71EE81EF91EC0920B05D0920C058A
:104B7000E0920D05F0920E0560913C1A70913D1A7D
:104B800030E020E041E18AE39AE1FF90EF90DF908E
:104B9000CF900D94E721EF92FF920F931F93CF9345
:104BA000DF93EC018B017A018A859B858617970735
:104BB00031F0888199810F943D231B870A87B701C3
:104BC000888199810F94DF1B2E813F81820F932F63
:104BD000911D9F838E8390E080E0DF91CF911F91A4
:104BE0000F91FF90EF9008959F92AF92BF92CF9256
:104BF000DF92EF92FF920F931F93CF93DF93EC011D
:104C00008B01942EA52E8A859B858617970731F0F8
:104C1000888199810F943D231B870A878885998510
:104C2000019649F5BC800A818E81080FC880D98021
:104C3000D6015596ED91FC91C6011995B80EE92C57
:104C4000FA2C10E0F70121917F01211127C08E81FC
:104C50009F81810F911D9F838E8390E080E0DF9183
:104C6000CF911F910F91FF90EF90DF90CF90BF9069
:104C7000AF909F9008950E811F81692D7A2D8881B4
:104C800099810F94DF1B800F912F911D2885398505
:104C90002817390738F681E090E0E1CF4B2D602FDF
:104CA000C6010F945624080F180FCCCFDF92EF9255
:104CB000FF920F931F93CF93DF93EC01D62E1CAD81
:104CC0000BAD7C0184E0E80EF11CE98DFA8DC70183
:104CD0001995412F480F2D2D602FC7010F94562491
:104CE0009BAD890F8BAF81E090E0DF91CF911F9159
:104CF0000F91FF90EF90DF900895CF92DF92EF92A7
:104D0000FF920F931F93CF93DF93CDB7DEB72C970E
:104D10000FB6F894DEBF0FBECDBFF090711AE090D1
:104D2000721A2091C20421111DC04AEB55E06E2D6C
:104D30008F2D0F94C02490E080E0F80EF092711A4D
:104D4000E092721A99272C960FB6F894DEBF0FBE28
:104D5000CDBFDF91CF911F910F91FF90EF90DF902A
:104D6000CF900895C0903E1AD0903F1A2AE33AE1BE
:104D70003A8329832F2D30E03C832B832E2D30E086
:104D80003E832D8318861F827A8769871C861B863F
:104D900004EF15E29E012F5F3F4F47E551E2BC0152
:104DA000C6010F941717B6018AE39AE10F943D23C9
:104DB0008F819885C2CF6FEF7FEF9FCF4FE350E099
:104DC000BC0186E799E00D94374D0F931F93CF9365
:104DD000DF93CDB7DEB72C970FB6F894DEBF0FBECA
:104DE000CDBF8091BE09282F082E000C330B3F93B6
:104DF0008F9388EE9CE09F938F938E010F5F1F4FE0
:104E00001F930F930F94DB42C801D8DF0F900F90D0
:104E10000F900F900F900F902C960FB6F894DEBF66
:104E20000FBECDBFDF91CF911F910F910895CDCFD0
:104E30000F931F93CF93DF93CDB7DEB72C970FB6A9
:104E4000F894DEBF0FBECDBF8091BE09282F082E7B
:104E5000000C330B3F938F938FED9CE09F938F93C8
:104E60008E010F5F1F4F1F930F930F94DB42C801FA
:104E7000A5DF0F900F900F900F900F900F902C9632
:104E80000FB6F894DEBF0FBECDBFDF91CF911F915B
:104E90000F910895CDCF0F931F93CF93DF93CDB78D
:104EA000DEB72F970FB6F894DEBF0FBECDBF80914F
:104EB000BE09282F082E000C330B3F938F9383EDF0
:104EC0009CE09F938F938E010F5F1F4F1F930F9353
:104ED0000F94DB42C80172DF0F900F900F900F907C
:104EE0000F900F902F960FB6F894DEBF0FBECDBF78
:104EF000DF91CF911F910F910895CDCFEF92FF9247
:104F00000F931F93CF93DF9300D000D000D01F9258
:104F10001F92CDB7DEB77C0120916A05422F022E89
:104F2000000C550B80916B05833081F1843039F191
:104F300088ED9AE05F932F939F938F938E010F5F7D
:104F40001F4F1F930F930F94DB4260916A05C701B7
:104F50000E949DD4C80132DF0F900F900F900F90E8
:104F60000F900F902B960FB6F894DEBF0FBECDBFFB
:104F7000DF91CF911F910F91FF90EF90089584EEF4
:104F80009AE027FDD7CF8FEC9AE0D4CF8DEE9AE050
:104F9000D1CFE091BE0986E0E802F0011124E2528F
:104FA000FA4F80819181AACFE091BE0987E1E89F05
:104FB000F0011124EC58F94F808591859FCFCF9354
:104FC000DF93CDB7DEB720E2488559856F818E81AA
:104FD0000F94751BDF91CF910895282F1092BC0973
:104FE0008091720590917305A0917405B09175053B
:104FF000B7FF08C0109272051092730510927405E5
:105000001092750580916F05882331F080917205AB
:105010008093800510927E05809179051816FCF426
:10502000082E000C990B821B910920918005022EFD
:10503000000C330B2817390794F097FF02C090E05B
:1050400080E080938005092E000CAA0BBB0B809397
:10505000720590937305A0937405B09375058091C4
:1050600080056623A9F090918105891714F4809337
:10507000810520918105022E000C330B2C5F3F4FE0
:10508000482F082E000C550B241735071CF48450AC
:105090008093810508950F931F93522F2091341A06
:1050A0003091351A2817390781F110923E0420916A
:1050B00034043091350437FF04C010923504109247
:1050C00034049093351A8093341A8B0130E020E039
:1050D0000093720510937305209374053093750542
:1050E00040938105509379058B56954421F4109295
:1050F000780510923D0482E08093750281E08093F0
:105100007E0510926C05109268051F910F9108950D
:10511000CF93C1E0C0937805FC0180819181A28189
:10512000B38180931B0290931C02A0931D02B09345
:105130001E0220E040E070E060E0809170059091F8
:105140007105A9DFC0933E04CF9108958FEF80933E
:105150007A0520E040E070E060E085E89CE29BCFCB
:1051600081E080937805809164098770873051F0E1
:10517000109264091092A30685EF95E1909375094A
:105180008093740920E040E070E060E086EC93E4F6
:1051900082CF20E040E070E060E08BE695E47BCFDA
:1051A0008EE998E10F941C2BF4DF0D947D17F1DF4D
:1051B00061E087EE9EE00C949CE5611160931A0219
:1051C00040933B048C3008F039C0E82F880FFF0B68
:1051D0008827E251F74D8F4F0D94094A1F29FA286D
:1051E0000429222907290A290D29192910291E29EC
:1051F0001329162980E595E421E02093780520E025
:1052000040E070E060E047CF86E595E4F5CF89E5C2
:1052100095E4F2CF8CE595E4EFCF8FE595E4ECCF04
:1052200082E695E4E9CF85E695E4E6CF88E695E465
:10523000E3CF10928A0F82E293E4DECFAACF8DE40F
:1052400095E4DACF83E595E4D7CFCF930E945EB2A1
:105250000E94318AC82F882319F080E00E94968925
:105260008C2FEADACF9195CF8BE299E09093750974
:10527000809374098ECFCF93DF93E0913D04EE23AA
:1052800029F1E150E0933D04AE2FB0E099E0E99FB1
:10529000F0011124EF5DFA4F278140E070E060E0FB
:1052A000811103C046816281738189E08A9FE00198
:1052B0008B9FD00D1124CF5DDA4F88819981EBDE71
:1052C000888580937805DF91CF910895DF91CF9104
:1052D00060CF8091BE09803210F40E945BD69ADACA
:1052E00080E0C9CF81E0C7CFEF92FF920F931F9369
:1052F000CF93DF9361E081E070DEC091810585E0AE
:10530000F82EFC0ED3E0DC1B12E01C1B01E00C1B92
:10531000EC2EE194C1112CC0809180058823B1F05E
:1053200080917502882359F081E090918005911158
:1053300080E024E04BE05EE06E2D0F94751BCF5FA4
:10534000FC12E8CF84E0809379050BC080917F0543
:1053500010927F05882321F3C5DF80917E05882385
:10536000F9F2DF91CF911F910F91FF90EF90089587
:10537000C13011F580918005813079F080917502FE
:105380008823E9F281E090918005913009F080E076
:1053900023E04EEF5DE0602FD0CF80917F0510922B
:1053A0007F05882359F38FEC90E40E9408BA80911E
:1053B0007E05882319F3D5CFC23091F58091800501
:1053C000823081F080917502882309F4B8CF81E0A2
:1053D00090918005923009F080E023E043EF5DE09A
:1053E000612FABCF80917F0510927F05882351F309
:1053F00080E691E40E9408BA80917E05882311F32B
:10540000B0CF80917F0510927F05882381F085EFD2
:1054100091E40E9408BA80917E05882341F0A1CFD3
:10542000C33009F08CCF80918005833051F3809197
:105430007502882309F483CF81E090918005933031
:1054400009F080E023E047EE5DE06D2F76CF2F92EC
:105450003F924F925F926F927F928F929F92AF9204
:10546000BF92CF92DF92EF92FF920F931F93CF9351
:10547000DF9300D000D0CDB7DEB70E94F6D6811101
:1054800018C182E080937A0580917C0690917D0618
:105490000E94B7D4482E811107C080919306909145
:1054A00094060E94B7D4482E0E94D3D68A8361E026
:1054B00081E093DD70908105572C25E0270D2B832B
:1054C000372D31953C8392E6E92E9BE0F92E2BE5B2
:1054D000C22E2BE0D22E32E4A32E3BE0B32E4BE4BF
:1054E000842E4BE0942E711014C080918005882387
:1054F00009F4E1C080917502882359F081E0909110
:105500008005911180E024E044E75BE06C810F941A
:10551000751B84E796E09E838D838C0166246394DB
:1055200033243A94370C272C2518F801808591856F
:105530000E94B7D4882309F4F8C076101EC03092B8
:10554000BE091092C2091092C1091092C0091092AE
:10555000BF0980918005871509F4D6C08091750236
:10556000882359F081E090918005971180E023E035
:1055700042E65BE0622D0F94751B81E0860D095EAB
:105580001F4FF2E06F12BDC02A8121118BC0382E4F
:1055900004E716E0212C372D35193983F801808571
:1055A00091850E94B7D4882309F405C173101EC0E9
:1055B0002092BE091092C2091092C1091092C0092E
:1055C0001092BF0980918005871509F4E3C080918E
:1055D0007502882359F081E090918005971180E051
:1055E00023E04BE55BE069810F94751B66246394AF
:1055F000630C095E1F4F339421E02212C8C044207F
:1056000009F41DC1671015C080918005861509F445
:1056100005C180917502882361F0672D651981E0CD
:1056200090918005971180E023E040E55BE00F94C6
:10563000751B639410E0072D0519ED81FE818085AF
:1056400091850E94B7D4882309F42DC176101EC01D
:105650001093BE091092C2091092C1091092C0099C
:105660001092BF0980918005871509F40BC18091C4
:105670007502882359F081E090918005971180E0B0
:1056800023E042E45BE0602F0F94751B81E0860D00
:105690002D813E81295E3F4F3E832D8363941130DF
:1056A00009F0EEC073943B8137111DCF80937905CB
:1056B0000FC081E0E7CE80917F0510927F0588239F
:1056C00009F418CF0FDE80917E05882309F412CFEC
:1056D00026960FB6F894DEBF0FBECDBFDF91CF91F7
:1056E0001F910F91FF90EF90DF90CF90BF90AF9000
:1056F0009F908F907F906F905F904F903F902F90F2
:10570000089582E0682E11CF80917F0510927F0569
:10571000882309F423CF83E496E50E9408BA809198
:105720007E05882309F41ACFD3CF761026CF309286
:10573000BE091092C2091092C1091092C0091092BC
:10574000BF09809180058715B1F08091750288238B
:1057500009F413CF1F92FF92EF922F9281E0909164
:105760008005971180E08F932ADC0F900F900F90A7
:105770000F900F9002CF80917F0510927F058823B4
:1057800021F389DB80917E058823F9F2A1CF2224C1
:10579000239404CF80917F0510927F05882309F41C
:1057A00016CF8FE396E50E9408BA80917E05882384
:1057B00009F40DCF8DCF731019CF2092BE0910922E
:1057C000C2091092C1091092C0091092BF098091BC
:1057D00080058715B9F080917502882309F406CFFA
:1057E0001F92DF92CF92F981FF9381E09091800523
:1057F000971180E08F93E3DB0F900F900F900F9045
:105800000F90F4CE80917F0510927F05882319F3C5
:105810000FDB80917E058823F1F25ACF80917F05BE
:1058200010927F05882309F4F4CE8CE396E50E945C
:1058300008BA80917E05882309F4EBCE49CF671022
:10584000F8CE90918005961561F0809175028823BD
:1058500009F4EFCE672D651981E0971180E020E211
:10586000E4CE80917F0510927F05882371F390929A
:1058700075098092740980917E05882331F328CFC1
:1058800011E0DBCE80917F0510927F05882309F41B
:10589000EECE88E396E50E9408BA80917E058823C3
:1058A00009F4E5CE15CF7610F1CE1093BE09109213
:1058B000C2091092C1091092C0091092BF098091CB
:1058C00080058715B1F080917502882309F4DECE3A
:1058D0001F92BF92AF920F9381E090918005971134
:1058E00080E08F936CDB0F900F900F900F900F90D4
:1058F000CDCE80917F0510927F05882321F365DA54
:1059000080917E058823F9F2E3CEAF92BF92CF92C9
:10591000DF92EF92FF920F931F93CF93DF9300914B
:10592000190261E081E059DBC0918105CC2E85E050
:10593000D82EDC0EBC2EB194EE24E394F12CC111D0
:1059400014C080918005882309F45DC080917502A0
:10595000882359F081E090918005911180E024E046
:105960004BEF59E06B2D0F94751B1FEFD1E0AC2E60
:10597000AC1880913A0418170CF06EC0011709F4A6
:1059800040C0212F17FD202FC701022E02C0880F13
:10599000991F0A94E2F7092E000CAA0BBB0B409149
:1059A000360450913704609138047091390484238F
:1059B0009523A623B723892B8A2B8B2B11F5DC1378
:1059C0001DC02093BE091092C2091092C109109205
:1059D000C0091092BF09809180058D1761F18091F7
:1059E0007502882359F081E0909180059D1380E035
:1059F00023E04BEE59E06A2D0F94751B17FD2AC06A
:105A0000DF5F1F5FB6CF80917F0510927F058823EF
:105A100009F49CCF67DC80917E05882309F496CF3A
:105A2000DF91CF911F910F91FF90EF90DF90CF907A
:105A3000BF90AF90089580917F0510927F058823D5
:105A400071F28BEF98E30E9408BA80917E0588235B
:105A500031F2E6CFDE5FD5CFCF5FDC1270CFD093CF
:105A60007905DECFE0913D04E63028F581E08E0F28
:105A700080933D04409172055091730560917405C7
:105A80007091750520918105909179058091780537
:105A900039E0E39FF0011124EF5DFA4FA091341A31
:105AA000B091351AB183A083428353836483758395
:105AB00026839783808708954F925F926F927F929B
:105AC0008F929F92AF92BF92CF92DF92EF92FF920E
:105AD0000F931F93CF93DF930E94D3D6682E61E07C
